:0200000080136B
:02000300805C1F
:10001300806275A885D288D28A75200079001186FE
:100023007A009000BFEA93600511A30A80F7B90034
:1000330004D2A78002C2A774C61198E975F064843C
:10004300243011A374C71198E5F075F00A842430A5
:1000530011A374C81198E5F0243011A380D02001B6
:1000630004D200800C19C201C2008921300F027929
:1000730000C28932200004D201800509C201C200F6
:10008300C28B3274381198740C119874061198222B
:100093007401119822D2B4C2B5F590C2B411AE2244
:1000A300D2B4D2B5F590C2B411AE22C006C0077E59
:1000B3000A7FFADFFEDEFAD007D00622534F204E26
:0800C30047554F49204C410054
:00000001FF
